:020000040800F2
:10000000005000204D0A00089D0A00089D0A0008C3
:100010009D0A00089D0A00089D0A000800000000D3
:100020000000000000000000000000009D0A000821
:100030009D0A0008000000009D0A0008390500081C
:100040009D0A00089D0A00089D0A00089D0A0008F4
:100050009D0A00089D0A0008710100089D0A000819
:100060009D0A00089D0A00089D0A00089D0A0008D4
:100070009D0A00089D0A00089D0A00089D0A0008C4
:100080009D0A00089D0A00089D0A00089D0A0008B4
:100090009D0A00089D0A00089D0A00089D0A0008A4
:1000A0009D0A00089D0A00089D0A00089D0A000894
:1000B000CD070008890800089D0A00089D0A00086D
:1000C0009D0A00089D0A00089D0A00089D0A000874
:1000D0009D0A0008310900089D0A00089D0A0008D1
:1000E0009D0A00089D0A0008000000009D0A000803
:1000F0009D0A00089D0A00089D0A00089D0A000844
:100100009D0A00089D0A00089D0A00089D0A000833
:100110009D0A00089D0A00089D0A00089D0A000823
:100120009D0A00089D0A00089D0A00089D0A000813
:1001300010B5054C237833B9044B13B10448AFF321
:1001400000800123237010BD040000200000000087
:10015000E80A000808B5034B1BB103490348AFF395
:10016000008008BD0000000008000020E80A000828
:1001700080B500AF054B1B689847054B5B69044A87
:1001800043F00103536100BF80BD00BF2000002089
:100190000004014080B483B000AF0346FB710B46FE
:1001A000BB7113467B71FB79022B7AD0022B00F3D3
:1001B000B180002B02D0012B3AD0ABE0BB79072BEA
:1001C00017D85A4B1B68BA7992000F2101FA02F234
:1001D000D2431146554A0B401360544B1B68797942
:1001E000BA79920001FA02F21146504A0B431360A9
:1001F00092E0BB790F2B00F28F80BB79083BBB717B
:100200004A4B5B68BA7992000F2101FA02F2D2439D
:100210001146464A0B405360444B5B687979BA7982
:10022000920001FA02F21146404A0B43536073E018
:10023000BB79072B17D83E4B1B68BA7992000F2168
:1002400001FA02F2D2431146394A0B401360384B8F
:100250001B687979BA79920001FA02F21146344AA0
:100260000B4313605AE0BB790F2B57D8BB79083B7F
:10027000BB712F4B5B68BA7992000F2101FA02F231
:10028000D24311462A4A0B405360294B5B68797967
:10029000BA79920001FA02F21146254A0B435360E3
:1002A0003CE0BB79072B17D8224B1B68BA79920028
:1002B0000F2101FA02F2D24311461E4A0B4013608D
:1002C0001C4B1B687979BA79920001FA02F2114647
:1002D000184A0B43136023E0BB790F2B20D8BB795E
:1002E000083BBB71134B5B68BA7992000F2101FA8E
:1002F00002F2D24311460F4A0B4053600D4B5B682C
:100300007979BA79920001FA02F21146094A0B434F
:10031000536005E000BF04E000BF02E000BF00E062
:1003200000BF00BF0C37BD4680BC704700080140CD
:10033000000C01400010014080B483B000AF0346C0
:10034000FB710B46BB7113467B71FB79022B40D0CE
:10035000022B60DC002B02D0012B1DD05BE07B79EF
:10036000012B0AD12E4BDB68BA79012101FA02F286
:1003700011462B4A0B43D36048E07B79002B45D1D3
:10038000274BDB68BA79012101FA02F2D243114608
:10039000234A0B40D36039E07B79012B0AD1214BF2
:1003A000DB68BA79012101FA02F211461D4A0B43BA
:1003B000D3602DE07B79002B2AD11A4BDB68BA7908
:1003C000012101FA02F2D2431146164A0B40D360D2
:1003D0001EE07B79012B0AD1134BDB68BA7901212E
:1003E00001FA02F21146104A0B43D36012E07B7906
:1003F000002B0FD10C4BDB68BA79012101FA02F214
:10040000D2431146084A0B40D36003E000BF02E02C
:1004100000BF00E000BF00BF0C37BD4680BC704786
:1004200000080140000C01400010014080B483B07E
:1004300000AF0346FB71FB7903F01F03012202FAB0
:1004400003F1054AFB795B09DBB242F8231000BFD8
:100450000C37BD4680BC704700E100E080B483B03B
:1004600000AF00237B60154B5B68144A23F0010347
:100470005360124B5B68114A23F0020353600F4B29
:100480001B680E4A43F00103136002E07B680133EE
:100490007B600A4B1B6803F00203002B03D17B68CF
:1004A000074A9342F2D9054B1B68044A23F4002300
:1004B000136000BF0C37BD4680BC7047001002407F
:1004C0009F86010080B483B000AF03460A46FB71EB
:1004D0001346BB71FB79022B1CD0022B25DC002BB1
:1004E00002D0012B0BD020E0124B5B69BA790121BD
:1004F00001FA02F211460F4A0B43536115E00D4B0E
:10050000DB69BA79012101FA02F21146094A0B436B
:10051000D3610AE0074B9B69BA79012101FA02F223
:100520001146044A0B43936100BF00BF0C37BD4620
:1005300080BC70470010024080B500AF024B1B68C2
:10054000984700BF80BD00BF2400002080B485B064
:1005500000AF0346FB710023FB60FB79023B032BDA
:1005600017D801A252F823F0790500088105000888
:10057000870500088D0500084FF08043FB6009E007
:10058000074BFB6006E0074BFB6003E0064BFB609C
:1005900000E000BFFB6818461437BD4680BC7047BA
:1005A0000004004000080040000C004080B483B00C
:1005B00000AF00237B604FF0804301229A624FF02E
:1005C00080434FF6FF72DA624FF080434FF0804273
:1005D0001B6813604FF080431B684FF0804243F06C
:1005E000010313600D4B02229A620C4B4FF47A7296
:1005F000DA620A4B094A1B681360084B1B68074AFA
:1006000043F0010313607B68DB6843F001027B6801
:10061000DA6000BF0C37BD4680BC70470004004064
:1006200080B584B000AF03460A46FB711346BB7128
:10063000FB791846FFF78AFFF860FB681B6823F018
:100640000102FB681A60BB79013B032B56D801A25B
:1006500052F823F0650600088B060008B106000872
:10066000D7060008FB689B6943F00102FB689A61AA
:10067000FB681B6A43F00102FB681A62FB68DB68D7
:1006800043F00202FB68DA6039E0FB689B6943F4DF
:100690008072FB689A61FB681B6A43F01002FB687A
:1006A0001A62FB68DB6843F00402FB68DA6026E04C
:1006B000FB68DB6943F00102FB68DA61FB681B6AD7
:1006C00043F48072FB681A62FB68DB6843F008023F
:1006D000FB68DA6013E0FB68DB6943F48072FB6857
:1006E000DA61FB681B6A43F48052FB681A62FB689C
:1006F000DB6843F01002FB68DA6000E000BFFB68D3
:10070000DB6843F00102FB68DA60FB681B6843F0BA
:100710000102FB681A6000BF1037BD4680BD00BFF4
:1007200080B584B000AF03463A60FB710B46BB71E5
:10073000FB791846FFF70AFFF860BB79013B032BF2
:100740001ED801A252F823F05907000863070008D9
:100750006D07000877070008FB685A6B3B681A6052
:100760000FE0FB689A6B3B681A600AE0FB68DA6B83
:100770003B681A6005E0FB681A6C3B681A6000E091
:1007800000BF00BF1037BD4680BD00BF80B483B03E
:1007900000AF03463A60FB710B46BB713B68002B10
:1007A0000CD0FB79052B09D8FB799A1EBB79013B4C
:1007B0000549920013443A6841F8232000BF0C37E2
:1007C000BD4680BC704700BF2800002080B500AF48
:1007D0004FF080431B6903F00203002B0ED14FF052
:1007E00080431B694FF0804223F002031361254BC5
:1007F0001B68002B02D0234B1B6898474FF08043A7
:100800001B6903F00403002B0ED14FF080431B69DA
:100810004FF0804223F0040313611A4B5B68002BF6
:1008200002D0184B5B6898474FF080431B6903F078
:100830000803002B0ED14FF080431B694FF080421C
:1008400023F0080313610F4B9B68002B02D00D4B64
:100850009B6898474FF080431B6903F01003002BFF
:100860000ED14FF080431B694FF0804223F01003FC
:100870001361044BDB68002B02D0024BDB68984706
:1008800000BF80BD2800002080B500AF264B1B694B
:1008900003F00203002B0CD1234B1B69224A23F0E7
:1008A00002031361214B1B69002B02D01F4B1B69F4
:1008B00098471D4B1B6903F00403002B0CD11A4B06
:1008C0001B69194A23F004031361184B5B69002B61
:1008D00002D0164B5B699847134B1B6903F0080362
:1008E000002B0CD1104B1B690F4A23F00803136136
:1008F0000E4B9B69002B02D00C4B9B6998470A4B0F
:100900001B6903F01003002B0CD1074B1B69064A2F
:1009100023F010031361054BDB69002B02D0034B5E
:10092000DB69984700BF80BD00040040280000201C
:1009300080B500AF034B00221A60034B1B68984739
:1009400000BF80BD003801406800002080B500AFC6
:10095000FFF784FD02210220FFF7B4FD00210120F2
:10096000FFF7B0FD01210120FFF7ACFD02220F21AE
:100970000020FFF70FFC022201210020FFF70AFCF4
:100980001C20FFF753FD1D20FFF750FDFFF70EFE63
:1009900001210220FFF744FE0C4A01210220FFF74B
:1009A000BFFE0B4A01210220FFF7F0FE02210320C7
:1009B000FFF736FE054A02210320FFF7B1FE054A84
:1009C00002210320FFF7E2FEFEE700BF0000002047
:1009D000050A0008290A000880B483B000AF00238C
:1009E0007B6003E000BF7B6801337B607B68044A67
:1009F0009342F7D900BF00BF0C37BD4680BC70479B
:100A00001FA1070080B500AF012201210020FFF7E0
:100A100093FCFFF7E1FF002201210020FFF78CFC8F
:100A2000FFF7DAFF00BF80BD80B500AF01220F21C4
:100A30000020FFF781FCFFF7CFFF00220F210020ED
:100A4000FFF77AFCFFF7C8FF00BF80BD0D48854661
:100A5000AFF300800C480D490D4A002302E0D45842
:100A6000C4500433C4188C42F9D30A4A0A4C0023F8
:100A700001E013600432A242FBD300F011F8FFF74B
:100A800065FFFEE700500020000000200400002069
:100A9000080B0008040000206C000020FEE70000A6
:100AA00070B500260C4D0D4C641BA410A64209D154
:100AB00000F01AF800260A4D0A4C641BA410A64246
:100AC00005D170BD55F8043B98470136EEE755F85F
:100AD000043B98470136F2E7000B0008000B0008C2
:100AE000000B0008040B0008F8B500BFF8BC08BCF8
:100AF0009E467047F8B500BFF8BC08BC9E467047DC
:040B00005501000893
:040B040031010008B3
:040B0800E8030000FE
:0400000508000A4D98
:00000001FF
